:04FFF00043001F00AB
:08FFF800000000000000000001
:0300000002003EBD
:0C003E0078FFE4F6D8FD758120020085F3
:06030D00C102C180C10124
:1000CA001200341202AC12025220813FE4F50CF500
:1000DA000DC2A0E50A150A7002150914450970F344
:1000EA0075093A750A98D2A0E50A150A7002150927
:1000FA0014450970F375093A750A98050DE50D70EE
:10010A0002050C64C9450C70C8D2A0120301120280
:10011A00EF1202D1D2AF7F6112001E3001FDC2017F
:10012A005394FED2E943870300000000000080EBED
:100252005387BF75985053877FE4F5BA43A240F5A0
:10026200BD75BEF075BF0275BD035391FE43920189
:0F0272004391025392FD53B8EF53B7EFC2AC2242
:02001E008F99B8
:100020007518057519DCE5191519700215181445B0
:030030001870F352
:0100330022AA
:1002D10075930E75860EE4F59443840E5385F153A0
:0E02E100F8FD53F7FD43F80243F702D2E9227D
:1002AC005384CE43853153913F43913C5392DF436A
:1002BC0092DC53A4CF43A4CF53A5CF43A5CF53B1C6
:0502CC00FC43B2032217
:07003400E4F5955396BF228D
:1002EF0053890F438910538FEF758D01758B1ED274
:0202FF00AB2230
:03003B00020314A9
:05031400C2E9D28E32A7
:03001B000201DC03
:0D01DC00C0E0C0F0C083C082C0D075D0105C
:1001E900C28E85800E430EF1E50EF460091202817C
:1001F90030020312013AE50EF4600885800E430EC1
:0A020900F180F3D2015394FED2E914
:0B021300D0D0D082D083D0F0D0E032F9
:10028100E50E2409601624FC600B24FE7015E4F5CC
:100291001AD2028013751A02D202800C751A01D289
:0A02A100028005751A03C202AF1AAD
:0102AB002230
:10013A00EF601F14602D14704AE50F14600B1460F1
:10014A000C2402703E7F0180067F028002E4FF02D7
:10015A00021EE50B1460070470297F018002E4FF88
:10016A00020003E50814600E14600F1460102403E3
:10017A0070117F01800A7F0280067F038002E4FFFC
:04018A0012018E22AE
:10021E00EF601524FE601F04701C750F01D2A1C281
:10022E00A7D2A6C2B0D28422E4F50FD2A1D2A7C221
:10023E00A6D2B0C28422750F02C2A1D2A7D2A6C284
:04024E00B0C2842294
:10000300EF146003048008750B01C2A0D29622E4AA
:07001300F50BD2A0C29622FA
:10018E00EF14603A14601714602424037030E4F501
:10019E0008C2A2D292D293D294C2B1C2852275085D
:1001AE0002D2A2D292C293D294C2B1D28522750843
:1001BE0003D2A2D292D293C294D2B1D28522750822
:0E01CE0001D2A2C292D293D294D2B1C28522A3
:0C030100E4FF1200030F12021E02018E26
:10004A000200CAE493A3F8E493A34003F68001F202
:10005A0008DFF48029E493A3F85407240CC8C333B7
:10006A00C4540F4420C8834004F456800146F6DF86
:10007A00E4800B010204081020408090030DE47E06
:10008A00019360BCA3FF543F30E509541FFEE4937B
:10009A00A360010ECF54C025E060A840B8E493A342
:1000AA00FAE493A3F8E493A3C8C582C8CAC583CA6D
:1000BA00F0A3C8C582C8CAC583CADFE9DEE780BE25
:0103130000E9
:00000001FF
