:04FFF00043001F00AB
:08FFF800000000000000000001
:03000000020124D6
:0C01240078FFE4F6D8FD75812002016B25
:06002500C102C180C1010F
:1001B00012001E12021A1202A820813FE4F50DF56A
:1001C0000EC2A0E50C150C7002150B14450B70F354
:1001D000750B3A750C98D2A0E50C150C7002150B36
:1001E00014450B70F3750B3A750C98050EE50E70FF
:1001F00002050D64C9450D70C8D2A0120003120398
:1002000002D2ADD2AF3001FDC2015394FED2E94318
:0A021000870300000000000080EBEF
:1002A8005387BF75985053877FE4F5BA43A240F54A
:1002B800BD75BEF075BF0275BD035391FE43920133
:0F02C8004391025392FD53B8EF53B7EFC2AC22EC
:1003020075930E75860EE4F59443840E5385F1536E
:0E031200F8FD53F7FD43F80243F702D2E9224B
:10021A005384CE43853153913F43913C5392DF43FC
:10022A0092DC53A4CF43A4CF53A5CF43A5CF53B158
:10023A00FC43B203C284C285C2B0C2B1C296C2979D
:10024A00C2A3D2A2D292D293D294D2A0C2A1D2A64F
:0C025A00D2A7E4F509750801750A02221C
:07001E00E4F5955396BF22A3
:1000030053890F438910538FEF758D01758B1ED262
:02001300AB221E
:03003B00020015AB
:05001500C2E9D28E32A9
:03001B0002026678
:0D026600C0E0C0F0C083C082C0D075D010D1
:10027300C28E85800F430FF1E50FF460091202D798
:1002830030020312003EE50FF4600885800F430F30
:0A029300F180F3D2015394FED2E98A
:0B029D00D0D0D082D083D0F0D0E0326F
:1002D700E50F2409601624FC600B24FE7015E4F575
:1002E70018D2028013751801D202800C751802D239
:0A02F700028005751803C202AF185B
:0103010022D9
:10003E00EF14602514606224026003020123E508B8
:10004E0014600E046003020123750801C284D2A05D
:10005E0022E4F508D284C2A022C284D2A07508017F
:10006E00E50A14601814602324026003020123D2EF
:10007E00A1D2A7C2A6D285D2B0750A0122D2A6D22B
:10008E00A7C2A1C2B0C285750A0222D2A1D2A6C24F
:10009E00A7D285C2B0E4F50A22C284D2A0750801A7
:1000AE00E509146021146032146043146054240472
:1000BE007063D2A3D292D293D294C2A2C296C297A6
:1000CE00D2B175090122D2A3D2A2D293D294C292F6
:1000DE00C296C2B1D29675090222D2A3D2A2D292F0
:1000EE00D294C293C2B1D296D29775090322D2A3EB
:1000FE00D2A2D292D293C294D2B1D296D29775098D
:10010E000422D294D2A2D292D293C2A3C2B1C296E8
:06011E00C297E4F509227E
:100130000201B0E493A3F8E493A34003F68001F234
:1001400008DFF48029E493A3F85407240CC8C333D0
:10015000C4540F4420C8834004F456800146F6DF9F
:10016000E4800B0102040810204080900025E47E0A
:10017000019360BCA3FF543F30E509541FFEE49394
:10018000A360010ECF54C025E060A840B8E493A35B
:10019000FAE493A3F8E493A3C8C582C8CAC583CA86
:1001A000F0A3C8C582C8CAC583CADFE9DEE780BE3E
:01002B0000D4
:00000001FF
