:04FFF00043001F00AB
:08FFF800000000000000000001
:03000000020119E1
:0C01190078FFE4F6D8FD7581200201603B
:06002500C102C180C1010F
:1001A50012001E12020F12029D20813FE4F50DF58B
:1001B5000EC2A0E50C150C7002150B14450B70F35F
:1001C500750B3A750C98D2A0E50C150C7002150B41
:1001D50014450B70F3750B3A750C98050EE50E700A
:1001E50002050D64C9450D70C8D2A01200031202A4
:1001F500F7D2ADD2AF3001FDC2015394FED2E9432F
:0A020500870300000000000080EBFA
:10029D005387BF75985053877FE4F5BA43A240F555
:1002AD00BD75BEF075BF0275BD035391FE4392013E
:0F02BD004391025392FD53B8EF53B7EFC2AC22F7
:1002F70075930E75860EE4F59443840E5385F1537A
:0E030700F8FD53F7FD43F80243F702D2E92256
:10020F005384CE43853153913F43913C5392DF4307
:10021F0092DC53A4CF43A4CF53A5CF43A5CF53B163
:10022F00FC43B203C284C285C2B0C2B1C296C297A8
:10023F00C2A3D2A2D292D293D294D2A0C2A1D2A65A
:0C024F00D2A7E4F509750801750A022227
:07001E00E4F5955396BF22A3
:1000030053890F438910538FEF758D01758B1ED262
:02001300AB221E
:03003B00020015AB
:05001500C2E9D28E32A9
:03001B0002025B83
:0D025B00C0E0C0F0C083C082C0D075D010DC
:10026800C28E85800F430FF1E50FF460091202CCAE
:1002780030020312003EE50FF4600885800F430F3B
:0A028800F180F3D2015394FED2E995
:0B029200D0D0D082D083D0F0D0E0327A
:1002CC00E50F2409601624FC600B24FE7015E4F580
:1002DC0018D2028013751801D202800C751802D244
:0A02EC00028005751803C202AF1866
:0102F60022E5
:10003E00EF14602514605B24026003020118E508CA
:10004E0014600E046003020118750801C284D2A068
:10005E0022E4F508D284C2A022E50A1460181460C6
:10006E002324026003020118D2A1D2A7C2A6D28510
:10007E00D2B0750A0122D2A6D2A7C2A1C2B0C28541
:10008E00750A0222D2A1D2A6C2A7D285C2B0E4F5C9
:10009E000A22750801E509146021146032146043C8
:1000AE0014605424047063D2A3D292D293D294C219
:1000BE00A2C296C297D2B175090122D2A3D2A2D200
:1000CE0093D294C292C296C2B1D29675090222D22E
:1000DE00A3D2A2D292D294C293C2B1D296D2977523
:1000EE00090322D2A3D2A2D292D293C294D2B1D277
:1000FE0096D29775090422D294D2A2D292D293C2EA
:0B010E00A3C2B1C296C297E4F509221B
:100125000201A5E493A3F8E493A34003F68001F24A
:1001350008DFF48029E493A3F85407240CC8C333DB
:10014500C4540F4420C8834004F456800146F6DFAA
:10015500E4800B0102040810204080900025E47E15
:10016500019360BCA3FF543F30E509541FFEE4939F
:10017500A360010ECF54C025E060A840B8E493A366
:10018500FAE493A3F8E493A3C8C582C8CAC583CA91
:10019500F0A3C8C582C8CAC583CADFE9DEE780BE49
:01002B0000D4
:00000001FF
